:020000040800F2
:1000000000000220512C00089D0600089F060008F1
:10001000A1060008A3060008A506000800000000CD
:10002000000000000000000000000000A70600081B
:10003000A906000800000000AB060008AD06000895
:10004000A12C0008A12C0008A12C0008A12C00085C
:10005000A12C0008A12C0008A12C0008A12C00084C
:10006000A12C0008A12C0008A12C0008A12C00083C
:10007000A12C0008A12C0008A12C0008A12C00082C
:10008000A12C0008A12C0008A12C0008A12C00081C
:10009000A12C0008A12C0008A12C0008A12C00080C
:1000A000A12C0008A12C0008A12C0008A12C0008FC
:1000B000A12C0008A12C0008A12C0008B5060008FE
:1000C000C5060008A12C0008A12C0008A12C0008DE
:1000D000A12C0008A12C0008A12C0008A12C0008CC
:1000E000A12C0008A12C0008A12C0008A12C0008BC
:1000F000A12C0008A12C0008A12C0008A12C0008AC
:10010000A12C0008A12C0008A12C0008A12C00089B
:10011000A12C0008A12C0008A12C0008A12C00088B
:10012000A12C0008A12C0008A12C0008A12C00087B
:10013000A12C0008A12C0008A12C0008A12C00086B
:10014000A12C0008A12C0008A12C0008A12C00085B
:10015000A12C0008A12C0008A12C0008A12C00084B
:10016000A12C0008A12C0008A12C0008A12C00083B
:10017000A12C0008A12C0008A12C00080000000000
:08018000A12C0008A12C0008CD
:1001880010B5054C237833B9044B13B10448AFF3C9
:1001980000800123237010BD0C0000200000000027
:1001A800FC2C000808B5034B1BB103490348AFF307
:1001B800008008BD0000000010000020FC2C000892
:1001C80053B94AB9002908BF00281CBF4FF0FF31B6
:1001D8004FF0FF3000F074B9ADF1080C6DE904CEB2
:1001E80000F006F8DDF804E0DDE9022304B070470A
:1001F8002DE9F047089D04468E46002B4DD18A42D2
:10020800944669D9B2FA82F252B101FA02F3C2F104
:10021800200120FA01F10CFA02FC41EA030E944095
:100228004FEA1C48210CBEFBF8F61FFA8CF708FBB6
:1002380016E341EA034306FB07F199420AD91CEB8E
:10024800030306F1FF3080F01F81994240F21C81C0
:10025800023E63445B1AA4B2B3FBF8F008FB103308
:1002680044EA034400FB07F7A7420AD91CEB04043D
:1002780000F1FF3380F00A81A74240F2078164440D
:10028800023840EA0640E41B00261DB1D440002392
:10029800C5E900433146BDE8F0878B4209D9002DF6
:1002A80000F0EF800026C5E9000130463146BDE880
:1002B800F087B3FA83F6002E4AD18B4202D38242EA
:1002C80000F2F980841A61EB030301209E46002D99
:1002D800E0D0C5E9004EDDE702B9FFDEB2FA82F2EE
:1002E800002A40F09280A1EB0C014FEA1C471FFA4C
:1002F8008CFE0126200CB1FBF7F307FB131140EA33
:1003080001410EFB03F0884208D91CEB010103F1FF
:10031800FF3802D2884200F2CB804346091AA4B2C1
:10032800B1FBF7F007FB101144EA01440EFB00FE95
:10033800A64508D91CEB040400F1FF3102D2A645FA
:1003480000F2BB800846A4EB0E0440EA03409CE799
:10035800C6F12007B34022FA07FC4CEA030C20FA46
:1003680007F401FA06F31C43F9404FEA1C4900FA66
:1003780006F3B1FBF9F8200C1FFA8CFE09FB1811E3
:1003880040EA014108FB0EF0884202FA06F20BD956
:100398001CEB010108F1FF3A80F08880884240F2A6
:1003A8008580A8F102086144091AA4B2B1FBF9F0EA
:1003B80009FB101144EA014100FB0EFE8E4508D9E5
:1003C8001CEB010100F1FF346CD28E456AD902386A
:1003D800614440EA0840A0FB0294A1EB0E01A1424F
:1003E800C846A64656D353D05DB1B3EB080261EBBD
:1003F8000E0101FA07F722FA06F3F1401F43C5E997
:10040800007100263146BDE8F087C2F12003D840CC
:100418000CFA02FC21FA03F3914001434FEA1C470E
:100428001FFA8CFEB3FBF7F007FB10360B0C43EA00
:10043800064300FB0EF69E4204FA02F408D91CEBB0
:10044800030300F1FF382FD29E422DD902386344AE
:100458009B1B89B2B3FBF7F607FB163341EA03414E
:1004680006FB0EF38B4208D91CEB010106F1FF389D
:1004780016D28B4214D9023E6144C91A46EA004694
:1004880038E72E46284605E70646E3E61846F8E626
:100498004B45A9D2B9EB020864EB0C0E0138A3E76F
:1004A8004646EAE7204694E74046D1E7D0467BE750
:1004B800023B614432E7304609E76444023842E7C8
:1004C800704700BF72B6FEE700B595B03022002134
:1004D80008A802F007FC00230393049305930693EE
:1004E800079301931F4A116C41F080511164126CFB
:1004F80002F080520192019A02931B4A116841F45A
:1005080080411160126802F480420292029A02222B
:10051800089201210B9110210C910E920F93082340
:100528001093A823119312920423139308A801F09F
:1005380093FE98B90F230393022304930023059392
:100548004FF4A05306934FF480530793052103A853
:1005580002F0D0F820B915B05DF804FBFFF7B2FF40
:10056800FFF7B0FF003802400070004008B502F005
:1005780021FBFFF7A9FF00F00BF800F025F800F0C9
:1005880045F900F052F941F2883002F03FFBF6E7F6
:1005980082B0002100910B4B1A6B42F001021A63E2
:1005A8001A6B02F001020092009A01911A6B42F054
:1005B80002021A631B6B03F002030193019B02B052
:1005C800704700BF0038024008B50B480B4B03606A
:1005D8000B4B436000238360C3604FF48042026189
:1005E80043618361C361036200F00EFD00B908BD79
:1005F800FFF768FFFBE700BF280000200054004019
:10060800A086010030B589B00023039304930593B5
:100618000693079302681C4B9A4201D009B030BD7B
:1006280000240194194D2B6B43F002032B632B6BB1
:1006380003F002030193019BC02303931223049345
:10064800032306930423079303A9114802F018F91A
:1006580002942B6C43F400132B642B6C03F40013EB
:100668000293029B224621461F2002F023FA1F20F4
:1006780002F058FA22462146202002F01BFA2020D8
:1006880002F050FACAE700BF0054004000380240A8
:1006980000040240FEE7FEE7FEE7FEE7FEE77047DC
:1006A8007047704708B502F09FFA08BD08B50248C0
:1006B80001F0A0FC08BD00BF2800002008B50248D2
:1006C80001F068FD08BD00BF2800002082B00021AD
:1006D80000910B4B5A6C42F480425A645A6C02F4F3
:1006E80080420092009A01911A6C42F080521A647A
:1006F8001B6C03F080530193019B02B0704700BF4D
:1007080000380240D0ED007AF8EE677A9FED060ACD
:1007180067EE807A9FED050A67EE807A9FED040AFE
:1007280037EEC00A704700BF00008035000048431C
:1007380000004842D0ED007AF8EE677A9FED040A8F
:1007480067EE807A9FED030A27EE800A704700BFA4
:10075800000080350000C842F0B587B007460E4655
:10076800AC238DF8143033238DF8153000238DF821
:1007780016300A2002F04AFA4FF0FF3300930323A1
:1007880005AA3821204800F01DFD71238DF814308A
:10079800502002F03BFA1C4C4FF0FF350095012326
:1007A80005AA3821204600F00DFD0095012303AA73
:1007B8003821204600F0C2FD9DF90C30002BE4DB07
:1007C80000230393ADF810300095062303AA3821BF
:1007D800204600F0B3FD9DF80D109DF80E2042EA6A
:1007E80001219DF80F301A0942EA01123A6003F01C
:1007F8000F039DF8102042EA03229DF8113043EAC6
:100808000223336007B0F0BD2800002000B583B094
:10081800002301930093694601A8FFF79DFF01A8F3
:10082800FFF770FF03B05DF804FB00B583B0002349
:1008380001930093694601A8FFF78EFF6846FFF70A
:1008480079FF03B05DF804FB90F83E30DBB2402B33
:1008580010D00369B3F5804F1BD0036D002B39D13D
:10086800436CC3F3C813026803F0060343F0F003B4
:1008780013617047036D2BB9436C026803F0FE03E4
:1008880013617047436C026843F00103DBB21361E4
:10089800704790F83D30DBB2212B0FD0436C0268D3
:1008A80043F00103DBB21361436B6BB1DB6B5BB1EC
:1008B8000268536843F4006353607047436C0268EE
:1008C80003F0FE031361EFE7836B33B1DB6B002B9F
:1008D800EED102E0036D012B00D07047436CC3F3E7
:1008E800C813026803F0060343F0F1031361F4E749
:1008F800436C0268DBB21361436B3BB1DB6B2BB11A
:100908000268536843F4006353607047836B002B9D
:10091800FBD0DB6B002BF3D1F7E710B48BB090F86A
:100928003E30DAB2C16A046B90F83D30DBB2222B5C
:100938000BD00023099303685A6909929B690993AC
:10094800099B0BB05DF8044B7047036D0BB9402A47
:1009580017D0036D1BB90369B3F5404F19D0438D08
:100968009BB2002B25D1029303685A6902929A69B7
:100978000292029A1A6842F400721A600023036510
:10098800DFE7009303685A6900929B690093009B14
:10099800D7E70023019303685A6901929A69019283
:1009A800019A1A6842F480721A60036D0133036574
:1009B800C7E7438D9BB2012B25D0438D9BB2022BF9
:1009C8007BD00268136843F48063136003685A6835
:1009D80012F4006F0ED011F5803F07D0012905D021
:1009E800082903D0102901D0202903D15A6842F4DC
:1009F80080525A600023089303685A6908929B69D9
:100A08000893089BBAE711F5803F11D0082934D024
:100A1800202932D0122C2ED0042940D002293ED0D1
:100A280010293CD00268136823F4806313603BE00C
:100A38000268136823F48063136003685A6812F429
:100A4800006F0CD01A6822F480621A6000230393A6
:100A580003685A6903929B690393039B8EE70022FC
:100A680004925A6904929A690492049A1A6842F4A0
:100A780000721A6082E70129CED00268136823F455
:100A8800806313600023069303685A6906929A6983
:100A98000692069A1A6842F400721A606EE70268B3
:100AA800136843F4806313600023059303685A694D
:100AB80005929B690593059B60E704290ED00229DE
:100AC8000CD010290AD00268136823F480631360DD
:100AD8000268136843F40063136004E00268136853
:100AE80043F48063136003685A6812F4006F0ED0F1
:100AF80011F5803F07D0012905D0082903D0102916
:100B080001D0202903D15A6842F480525A60002348
:100B1800079303685A6907929B690793079B2DE718
:100B2800438D9BB25BB1426A036812781A61436ACB
:100B380001334362438D9BB2013B9BB243857047AF
:100B4800438D9BB25BB103681A69436A1A70436AA2
:100B580001334362438D9BB2013B9BB2438570478F
:100B680082B0002301930E4B1B68DB080D4AA2FBE1
:100B780003231B0A03EB83030193019B013B0193AE
:100B8800019B33B103681B6813F4007FF5D1002083
:100B980004E0036C43F020030364012002B07047B3
:100BA8000800002089B5F81403685A6912F4806FA8
:100BB80001D1002070476FF480625A6100230363FB
:100BC800202280F83D2080F83E30026C42F004027A
:100BD800026480F83C3001207047C36AB3F52A0FDD
:100BE80004D0C36AB3F12A4F03D070470123C3620C
:100BF80070470823C362F8E72DE9F04107460D4620
:100C080090461E4624E001F0FBFF069BC01AB04246
:100C180000D8EEB900233B63202287F83D2087F8EF
:100C28003E303A6C42F020023A6487F83C300120AA
:100C38001EE03B689C6925EA040C1FFA8CFCBCFA90
:100C48008CFC4FEA5C1CE04511D1B6F1FF3FDAD1CC
:100C5800C5F30743012BECD13B685B6925EA030C1C
:100C68001FFA8CFCBCFA8CFC4FEA5C1CEBE70020FA
:100C7800BDE8F0812DE9F04105460E461746984635
:100C88003DE01A6842F400721A602B686FF48062C3
:100C98005A6100232B63202285F83D2085F83E30D9
:100CA8002A6C42F004022A6485F83C30012034E0C2
:100CB80001F0A6FFA0EB0800B84200D8FFB9002356
:100CC8002B63202285F83D2085F83E302A6C42F0BF
:100CD80020022A6485F83C3001201EE02B689C69BC
:100CE80026EA0404A4B2003C18BF0124A4B12B686E
:100CF8005A6912F4806FC4D1B7F1FF3FD8D1C6F357
:100D08000743012BEAD12B685C6926EA0404A4B2E4
:100D1800003C18BF0124E9E70020BDE8F08100008D
:100D2800F0B583B004460D4616461F46C36A082B25
:100D38000DD0012B0BD013F5803F08D0036B122B7D
:100D48000AD10268136843F48073136004E02268D0
:100D5800136843F4807313600097334600224FF002
:100D680001112046FFF748FF80B92369B3F5804F8A
:100D780016D1236805F0FE051D613B46324613492E
:100D88002046FFF777FFF8B903B0F0BD23681B686A
:100D980013F4807F02D04FF4007323640320F3E739
:100DA800EB11226803F0060343F0F00313613B469E
:100DB800324607492046FFF75DFF18B92368EDB2B0
:100DC8001D61DAE70120DFE70120DDE7020001000D
:100DD800080001002DE9F04184B004460D4616468E
:100DE8001F46C26A01680B6843F480630B60082AD7
:100DF8000DD0012A0BD012F5803F08D0036B112BC0
:100E08000AD10268136843F48073136004E022680F
:100E1800136843F4807313600097334600224FF041
:100E280001112046FFF7E8FE98B92369B3F5804F12
:100E380019D1236845F00105EDB21D613B463246E4
:100E48002A492046FFF716FF00284CD104B0BDE818
:100E5800F08123681B6813F4807F02D04FF400737D
:100E680023640320F2E74FEAE51808F00608236830
:100E780048F0F0021A613B4632461D492046FFF70A
:100E8800F9FE08B10120E1E72368EDB21D613B4698
:100E9800324616492046FFF7EDFE08B10120D5E796
:100EA8000022039223685969039199690391039970
:100EB800196841F480711960009733464FF00111A9
:100EC8002046FFF799FE20B9226848F0F103136124
:100ED800B4E723681B6813F4807F02D04FF40073D3
:100EE80023640320B2E70120B0E700BF020001003D
:100EF8000800010070B504460D46164623685B6974
:100F080013F0800F1CD12046FFF74EFED0B9B5F183
:100F1800FF3FF3D001F074FE801BA84201D8002DDA
:100F2800ECD100232363202284F83D2084F83E304E
:100F3800226C42F02002226484F83C30012000E058
:100F4800002070BD0120FCE770B504460D4616462A
:100F580023685B6913F0040F1CD12046FFF724FEB9
:100F6800D0B9B5F1FF3FF3D001F04AFE801BA8428B
:100F780001D8002DECD100232363202284F83D20E2
:100F880084F83E30226C42F02002226484F83C301F
:100F9800012000E0002070BD0120FCE770B5054687
:100FA8000C4616462B68596911F0400F29D159692A
:100FB80011F0100F15D101F023FE801BA04201D8BB
:100FC800002CEFD100232B63202285F83D2085F8E3
:100FD8003E302A6C42F020022A6485F83C30012019
:100FE80070BD6FF010025A6100232B63202285F830
:100FF8003D2085F83E302A6C2A6485F83C30012073
:10100800EEE70020ECE70000002800F0CC8070B587
:10101800044690F83D30002B77D0242384F83D30E7
:101028002268136823F0010313602268136843F4ED
:10103800004313602268136823F40043136001F02F
:101048000FFC62685A4B9A4264D85A4B98428CBF3C
:1010580000230123002B40F0A8805749A1FB003151
:101068008B0C25686A6822F03F0242EA91426A6066
:1010780021680A6A22F03F0266684D4DAE424FD899
:10108800013313430B622168CA6922F44F4222F0EC
:10109800FF026668464B9E424CD8431E7600B3FB5F
:1010A800F6F3013340F6FC70034278D0C3F30B0328
:1010B8001343CB6121680B6823F0C003E269206AFF
:1010C800024313430B6021688B6823F4034323F026
:1010D800FF032269E068024313438B602168CB68F1
:1010E80023F0FF036269A06902431343CB602268BF
:1010F800136843F00103136000202064202384F860
:101108003D30206384F83E0070BD80F83C30FFF726
:1011180079FA82E7294B98428CBF0023012399E78B
:101128004FF4967505FB03F3254DA5FB03539B0967
:101138000133A6E7A368BBB9451E06EB460CB5FB11
:10114800FCF50135C5F30B05B5FA85F56D0945BB09
:10115800C3B9013806EB4603B0FBF3F30133C3F31D
:101168000B0343F40043A3E7451E06EB860C0CEB88
:101178008C0CB5FBFCF50135C5F30B05B5FA85F507
:101188006D09E4E7013806EB860303EB8303B0FB44
:10119800F3F30133C3F30B0343F4404388E7042319
:1011A80086E7012384E7012070470120ACE700BFF0
:1011B800A08601007F841E0083DE1B43FF083D00DC
:1011C800D34D62102DE9F04385B004460F46914691
:1011D80098460C9E01F014FD054694F83D00C0B2F7
:1011E800202804D00227384605B0BDE8F0830095D2
:1011F800192301224F492046FFF7FEFC002840F042
:10120800928094F83C30012B00F08F80012384F801
:101218003C3023681A6812F0010F03D11A6842F0B3
:1012280001021A602268136823F400631360212303
:1012380084F83D30102384F83E3000232364C4F83A
:101248002490A4F82A80638D23853B4BE3622B46C8
:10125800324639462046FFF763FD0746002866D127
:101268000023039323685A6903929B690393039BA2
:1012780011E0236C042B01D00127B4E7226813681E
:1012880043F400731360F7E72A4631462046FFF718
:101298005BFE00282ED1238D002B36D02A463146FE
:1012A8002046FFF727FE0028E3D1626A23681278F8
:1012B8001A61606A431C6362618D89B2013989B21F
:1012C8006185238D013B9BB223852268516911F00A
:1012D800040FD9D0002BD7D043781361636A013348
:1012E8006362638D9BB2013B9BB26385238D013B97
:1012F8002385C9E7236C042B01D0012773E72268F3
:10130800136843F400731360F7E72268136843F423
:1013180000731360202384F83D30002384F83E30A6
:1013280084F83C305FE702275DE702275BE7012787
:1013380059E700BF020010000000FFFF2DE9F0434D
:1013480087B004460F46914698460E9E01F058FC19
:10135800054694F83D00C0B2202804D0022738463C
:1013680007B0BDE8F083009519230122894920467A
:10137800FFF742FC002840F0458194F83C30012BEF
:1013880000F04281012384F83C3023681A6812F087
:10139800010F03D11A6842F001021A60226813682B
:1013A80023F400631360222384F83D30102384F86B
:1013B8003E3000232364C4F82490A4F82A80638D67
:1013C8002385754BE3622B46324639462046FFF7A4
:1013D80001FD0746002840F01981238D5BB902936F
:1013E80023685A6902929A690292029A1A6842F428
:1013F80000721A607AE0012B0FD0022B1FD02268EE
:10140800136843F4806313600023059323685A69C3
:1014180005929B690593059B68E02268136823F48D
:10142800806313600023039323685A6903929A69BF
:101438000392039A1A6842F400721A6056E022680E
:10144800136823F4806313602268136843F400630D
:1014580013600023049323685A6904929B690493D8
:10146800049B43E02A4631462046FFF797FD0028B3
:1014780040F0CE8023681A69636A1A70636A013380
:101488006362238D013B2385638D9BB2013B9BB235
:1014980063852BE000953346002240492046FFF73C
:1014A800ABFB002840F0B6802268136843F4007351
:1014B800136023681A69636A1A70626A531C63624C
:1014C800238D013B2385638D9BB2013B9BB26385D2
:1014D80023681B695370636A01336362238D013B80
:1014E8002385638D9BB2013B9BB26385218D0029C7
:1014F8007FD0032954D80129B4D00229CAD0009535
:101508003346002225492046FFF776FB002840F0A5
:1015180083802268136823F48063136023681A6940
:10152800636A1A70636A01336362238D013B238502
:10153800618D89B2013989B26185009533460022EF
:1015480016492046FFF758FB002867D12268136820
:1015580043F40073136023681A69636A1A70626A35
:10156800531C6362238D013B2385638D9BB2013B32
:101578009BB2638523681B695370636A0133636296
:10158800238D013B2385638D9BB2013B9BB2638511
:10159800ACE700BF020010000000FFFF04000100DC
:1015A8002A4631462046FFF7F9FC002838D123683F
:1015B8001A69636A1A70626A531C6362238D013B5D
:1015C8002385638D9BB2013B9BB263852368596970
:1015D80011F0040F8AD01B695370636A0133636288
:1015E800238D013B2385638D9BB2013B9BB26385B1
:1015F8007CE7202384F83D30002384F83E3084F8CB
:101608003C30ACE60227AAE60227A8E60127A6E6B0
:101618000127A4E60127A2E60127A0E601279EE606
:1016280001279CE670477047704708B590F83D3031
:10163800DAB2438D9BB283B1416A036809781961B4
:10164800436A01334362438D9BB2013B9BB243859E
:10165800438D9BB20BB9292A00D008BD0268536894
:1016680023F48063536021230363282380F83D30EB
:10167800FFF7DAFFF1E7704708B590F83D30DAB2C6
:10168800438D9BB283B103681969436A1970436A31
:1016980001334362438D9BB2013B9BB24385438D2B
:1016A8009BB20BB92A2A00D008BD0268536823F4FC
:1016B8008063536022230363282380F83D30FFF7BB
:1016C800DAFFF1E7704700B583B090F83D3003F0DA
:1016D8002803282B0CD0002301930268516901913B
:1016E80092690192019A80F83C3003B05DF804FBDE
:1016F8000268536823F48063536011F0040F0BD021
:10170800002311F0800F09D18289002180F83C1054
:101718001946FFF7D7FFE8E70123F2E7028BF4E762
:101728007047000008B590F83D30DBB2C26A082A5D
:1017380001D0202A01D1282B06D0212B1ED00368E6
:101748006FF480625A6108BD1A4BC362026853681D
:1017580023F4E063536003686FF480625A6102689F
:10176800136823F48063136000230363202280F846
:101778003D2080F83E30FFF7D3FFE4E70D4BC3620E
:1017880021230363202380F83D30002380F83E3076
:101798000268536823F4E063536003686FF480625F
:1017A8005A610268136823F480631360FFF73CFFF3
:1017B800C9E700BF0000FFFF704708B5C26A90F88C
:1017C8003D30DBB2212B00D008BD438D9BB263B105
:1017D800426A036812781A61436A01334362438D8F
:1017E8009BB2013B9BB24385EEE7082A04D0202A2E
:1017F80002D012F5803F19D10268536823F4E063E0
:1018080053600268136843F4007313600023036392
:10181800202380F83D3090F83E30DBB2402B15D0C5
:10182800002380F83E30FFF7FDFECDE702685368DD
:1018380023F4E063536011230363002380F83E30F0
:10184800202380F83D30FFF7EDFEBDE7002380F848
:101858003E30FFF7B1FFB7E708B590F83D30026DAD
:101868009AB9C36C012B08D0836CC3F307230268B1
:101878001361036D0133036508BD836C0268DBB235
:101888001361036D02330365F6E7DBB2026D012ACB
:1018980023D0026D022AEFD1222B26D0428D92B29C
:1018A8000AB1212B2AD0428D92B2002AE4D1212BF1
:1018B800E2D10268536823F4E06353600268136856
:1018C80043F40073136000230363202280F83D2053
:1018D80080F83E30FFF770FFCEE7836C0268DBB21A
:1018E8001361036D01330365C6E70268136843F4A7
:1018F80080731360036D01330365BDE7426A0368B3
:1019080012781A61436A01334362438D9BB2013BEB
:101918009BB24385B0E710B590F83D30DBB290F844
:101928003E20D2B2C46A018D09B9212B04D0212BE3
:101938003BD0402A37D010BD082C04D0202C02D030
:1019480014F5803F19D10268536823F4E0635360AB
:101958000268136843F400731360002303632023B1
:1019680080F83D3090F83E30DBB2402B15D0002394
:1019780080F83E30FFF756FEDDE70268536823F42F
:10198800E063536011230363002380F83E30202373
:1019980080F83D30FFF746FECDE7002380F83E3063
:1019A800FFF70AFFC7E7222BC5D1438D9BB22BB99E
:1019B8000268536823F480635360BCE790F83E30B4
:1019C800DBB2402B0CD0426A036812781A61436A72
:1019D80001334362438D9BB2013B9BB24385AAE727
:1019E800FFF73AFFA7E7704708B5C26A438D9BB275
:1019F800042B14D0438D9BB2032B22D0438D9BB272
:101A0800022B39D003681A69436A1A70436A013392
:101A18004362438D9BB2013B9BB2438510E0026851
:101A2800536823F48063536003681A69436A1A7021
:101A3800436A01334362438D9BB2013B9BB24385AA
:101A480008BD01684B6823F480634B60042A06D004
:101A5800022A04D00268136823F4806313600368C1
:101A68001A69436A1A70436A01334362438D9BB211
:101A7800013B9BB24385E3E7012A0BD0102A09D02A
:101A8800042A38D0022A36D00268136843F4007357
:101A9800136004E00268136823F48063136003682A
:101AA8001A69436A1A70426A531C4362438D9BB297
:101AB800013B9BB2438503681B695370436A01333A
:101AC8004362438D9BB2013B9BB2438502685368D6
:101AD80023F440735360202380F83D3090F83E3063
:101AE800DBB2402B0DD0002380F83E301223036375
:101AF800FFF799FDA4E70268136843F48063136055
:101B0800CDE7002380F83E300363FFF76CFF97E7CB
:101B1800704790F83D30DBB2222B00D0704710B5EB
:101B28000446438D9BB2032B15D903681A69436A8F
:101B38001A70436A01334362438D9BB2013B9BB2E7
:101B48004385438D9BB2032B0FD10268536823F45E
:101B58008063536009E0C26A022A01D0012B05D9CB
:101B68002268536823F48063536010BDFEF7F8FFC2
:101B780000282ED12268136823F48063136022683A
:101B8800536823F4E063536023681A69636A1A7020
:101B9800636A01336362638D9BB2013B9BB26385C9
:101BA800202384F83D3094F83E30DBB2402B08D037
:101BB800002384F83E30122323632046FFF733FDC9
:101BC800D3E7002384F83E3023632046FFF70BFF5A
:101BD800CBE72268536823F4E063536023681A69EB
:101BE800636A1A70636A01336362638D9BB2013B57
:101BF8009BB26385202384F83D30002384F83E306F
:101C08002046FFF785FFB0E77047000000B583B0B6
:101C180000230193806B90F83D20D2B2324B1B68B1
:101C2800DB083249A1FB03131B0A03EB8303C3EB55
:101C3800C3030193019B43B1019B013B01930368DB
:101C48001B6813F4007FF5D103E0036C43F0200315
:101C58000364436B0BB10021D963836B0BB1002183
:101C6800D96301680B6823F480630B600023438504
:101C7800436B0BB100211965836B0BB1002119650A
:101C880001680B6823F001030B6090F83D30DBB26C
:101C9800602B0ED002F02802282A14D0202380F8C6
:101CA8003D30002380F83E30FFF732FF03B05DF887
:101CB80004FB202380F83D30002380F83E30036485
:101CC800FFF7A2FFF2E70268136843F0010313600D
:101CD8000268136843F480631360002303632823B6
:101CE80080F83D30E0E700BF0800002089B5F8140F
:101CF80010B5044690F83D30DBB290F83E20D2B2E1
:101D0800102A36D0402A34D003F02802282A38D0A6
:101D18002268526812F4006F07D1602B05D0202387
:101D280084F83D30002384F83E3000232363236881
:101D38005A6812F4006F48D05A6822F400625A6058
:101D4800626B92F83530DBB2012B20D0444B13651F
:101D5800606B00F087FE002849D02268136823F0E2
:101D680001031360202384F83D30606B036D9847AE
:101D78003DE0222BC8D121680A6822F400620A607B
:101D8800C2E700232363282384F83D30CFE7A36B01
:101D9800334A1A65A06B00F065FE40B323685A69A0
:101DA80012F0400F05D01A69636A1A70636A01332A
:101DB80063622268136823F001031360202384F808
:101DC8003D30A06B036D984711E094F83D20D2B2E6
:101DD800602A1FD05A6912F0400F05D01A69636A49
:101DE8001A70636A013363622046FFF791FE236C21
:101DF80013F00F0F04D02268536823F4E063536094
:101E080094F83D30DBB2226C12F0040F01D0282B7D
:101E180018D010BD202284F83D20002222645A697F
:101E280012F0400F05D01A69636A1A70636A0133A9
:101E380063622268136823F0010313602046FFF7EA
:101E4800E3FED4E7074BE36200232363202284F8F0
:101E58003D2084F83E302046FFF762FCD9E700BFFA
:101E6800151C00080000FFFF30B583B0044690F849
:101E78003D50EDB20268536823F4E06353600023D9
:101E8800019303685A6901921A6842F001021A60C4
:101E9800019B0268136823F48063136003685A681F
:101EA80012F4006F38D0222D21D02A2D1FD0426B7A
:101EB8001268526892B24285428D92B21AB1026C8F
:101EC80042F0040202645A6822F400625A60606BAD
:101ED80000F0DBFD01281FD0636B444A1A65606B74
:101EE80000F0C0FDC0B1606B036D984714E0A26BB1
:101EF8001268526892B26285628D92B21AB1226CEF
:101F080042F0040222645A6822F400625A60A06B0C
:101F180000F0BBFD012842D1638D9BB233B3236827
:101F28005A6912F0040F0AD01A69636A1A70636A50
:101F380001336362638D9BB2013B9BB26385236867
:101F48005A6912F0400F0AD01A69636A1A70636AF4
:101F580001336362638D9BB2013B9BB26385638DE2
:101F68009BB21BB1236C43F004032364236C13BBA3
:101F78002A2D25D094F83D30DBB2282B29D0236BAD
:101F8800222B01D0222D19D100232363202284F88B
:101F98003D2084F83E302046FFF76DFB0EE0A36B32
:101FA800124A1A65A06B00F05DFD0028B4D0A06B42
:101FB800036D9847B0E72046FFF79AFE03B030BD9F
:101FC80000232363282384F83D302046FFF753FB82
:101FD800D0E7074BE36200232363202284F83D20E7
:101FE80084F83E302046FFF79BFBE7E7151C000806
:101FF8000000FFFFF8B5044602685568C66A90F805
:102008003E30DBB290F83D10C8B2102B13D0402BF5
:1020180011D0236C002B7AD05369002113F0020FE2
:1020280078D015F4007F75D0236C03B191692046F0
:10203800FFF749FBF8BDD2F818C0516911F0010744
:1020480005D1B6F52A0FF5D0B6F12A4FF2D017B15F
:1020580015F4007F29D111F0080F02D015F4007F84
:102068002AD111F0020F02D015F4007F28D11CF0FC
:10207800040F31D0526812F4006FDBD111F0800FD9
:1020880005D015F4806F02D011F0040F1CD011F0A8
:10209800040FCFD015F4007FCCD0212818D0402BC6
:1020A800C8D12046FFF7D8FBC4E72046FEF795FDC8
:1020B8002046FEF7C9FBBDE72046FEF719FCB9E745
:1020C8002046FEF72AFCB5E72046FFF724FCB1E7D7
:1020D8002046FFF772FBADE7536813F4006FA9D1F0
:1020E80011F0400F05D015F4806F02D011F0040FE5
:1020F80009D011F0040F9DD015F4007F9AD0204626
:10210800FFF772FC96E72046FFF703FD92E7916917
:10211800536983E713F0100F02D015F4007F18D12C
:1021280021281AD0292818D013F0400F05D015F40B
:10213800806F02D013F0040F28D013F0040F3FF47F
:1021480079AF15F4007F3FF475AF2046FEF7F8FC31
:1021580070E72046FFF788FE6CE713F0800F05D084
:1021680015F4806F02D013F0040F0BD013F0040F96
:102178003FF460AF15F4007F3FF45CAF2046FEF7F4
:10218800CFFC57E72046FFF750FA53E72046FFF702
:1021980073FA4FE7F8B5044603685D695F6890F81D
:1021A8003E20D2B215F4807F07D017F4807F3CD050
:1021B8006FF480715961012600E0002615F4007F54
:1021C80008D017F4807F05D046F0020623686FF424
:1021D8000071596115F4806F19D017F4807F16D0FB
:1021E800638D99B294F83D30DBB2206B202A1ED063
:1021F80023686FF48061596146F00406102A01D003
:10220800402A04D12268136843F40073136015F45C
:10221800006F08D017F4807F05D046F008062368C1
:102228006FF400625A6186B9F8BD0026C6E7002936
:10223800DED1212B05D0292B03D0282BD8D121285A
:10224800D6D12046FFF76EFAE1E7236C1E432664D9
:102258002046FFF74DFDE7E7002800F0E08170B564
:1022680082B00446036813F0010F3BD09F4B9B6874
:1022780003F00C03042B2CD09C4B9B6803F00C033D
:10228800082B21D06368B3F5803F4FD0B3F5A02F5A
:1022980052D0964B1A6822F480321A601A6822F4D7
:1022A80080221A606368002B50D000F0A9FC054614
:1022B8008E4B1B6813F4003F14D100F0A1FC401BA7
:1022C8006428F5D90320B1E1884B5B6813F4800FCB
:1022D800D8D0864B1B6813F4003F03D06368002BEB
:1022E80000F09F81236813F0020F54D07F4B9B6846
:1022F80013F00C0F3ED07D4B9B6803F00C03082BAA
:1023080033D0E368002B68D0794B01221A6000F0C3
:1023180077FC0546754B1B6813F0020F54D100F08B
:102328006FFC401B0228F5D903207FE16F4A136830
:1023380043F480331360B5E76C4B1A6842F480228B
:102348001A601A6842F480321A60ABE700F058FC51
:102358000546664B1B6813F4003FC3D000F050FCE1
:10236800401B6428F5D9032060E1604B5B6813F4D7
:10237800800FC6D15D4B1B6813F0020F03D0E368D2
:10238800012B40F05081594A136823F0F803216962
:1023980043EAC1031360236813F0080F42D063694E
:1023A8006BB3534B0122C3F8802E00F029FC05467D
:1023B8004E4B5B6F13F0020F34D100F021FC401B31
:1023C8000228F5D9032031E1484A136823F0F803BD
:1023D800216943EAC1031360DDE7454B00221A6017
:1023E80000F00EFC0546414B1B6813F0020FD2D0DB
:1023F80000F006FC401B0228F5D9032016E13C4BEF
:102408000022C3F8802E00F0FBFB0546374B5B6FBC
:1024180013F0020F06D000F0F3FB401B0228F5D999
:10242800032003E1236813F0040F77D02F4B1B6CB4
:1024380013F0805F33D1002301932C4B1A6C42F0C8
:1024480080521A641B6C03F080530193019B012591
:10245800284B1B6813F4807F23D0A368012B34D04A
:10246800052B38D0214B1A6F22F001021A671A6F18
:1024780022F004021A67A368002B3DD000F0C0FBCD
:1024880006461A4B1B6F13F0020F46D100F0B8FB3B
:10249800801B41F288339842F3D90320C6E0002517
:1024A800D6E7144A136843F48073136000F0A8FB5E
:1024B8000646104B1B6813F4807FCED100F0A0FBBA
:1024C800801B0228F5D90320B0E0084A136F43F0B7
:1024D80001031367CFE7054B1A6F42F004021A672E
:1024E8001A6F42F001021A67C5E700BF00380240C0
:1024F800000047420070004000F082FB0646524B45
:102508001B6F13F0020F08D000F07AFB801B41F21A
:1025180088339842F3D9032088E0EDB9A369002BEA
:1025280000F08380484A926802F00C02082A51D0D1
:10253800022B17D0454B00221A6600F061FB0446B7
:10254800414B1B6813F0007F42D000F059FB001B81
:102558000228F5D9032069E03B4A136C23F0805325
:102568001364DBE7394B00221A6600F049FB054685
:10257800354B1B6813F0007F06D000F041FB401B71
:102588000228F5D9032051E0E369226A1343626AFD
:1025980043EA8213A26A5208013A43EA0243E26A12
:1025A80043EA0263284A5360284B01221A6600F066
:1025B80027FB0446244B1B6813F0007F06D100F06C
:1025C8001FFB001B0228F5D903202FE000202DE077
:1025D80000202BE0012B2BD01B4B5B6803F4800100
:1025E800E269914226D103F03F02216A8A4223D14F
:1025F800616A47F6C0721A40B2EB811F1ED103F41C
:102608004031A26A5208013AB1EB024F18D103F0E7
:102618007063E26AB3EB026F14D1002006E0012078
:102628007047012002E0012000E0002002B070BDE8
:102638000120FBE70120F9E70120F7E70120F5E792
:102648000120F3E70120F1E700380240000047428B
:1026580008B5254B9B6803F00C03042B3FD0082BCF
:102668003FD1214B5A6802F03F025B6813F4800F98
:1026780012D01D4B5968C1F388111C480023A1FBD7
:102688000001FDF79DFD184B5B68C3F3014301335F
:102698005B00B0FBF3F025E0134B5968C1F3881CCD
:1026A8004FEA4C11B1EB0C006EEB0E0E4FEA8E1395
:1026B80043EA90638101091A63EB0E03DB0043EAE6
:1026C8005173C90011EB0C0C43F10003990200236C
:1026D8004FEA8C2041EA9C51FDF772FDD3E703488D
:1026E80000E0034808BD00BF0038024040787D0183
:1026F8000024F400002800F09B8070B50D460446C5
:102708004F4B1B6803F007038B4208D2CBB24C4AED
:102718001370136803F007038B4240F08B80236823
:1027280013F0020F17D013F0040F04D0454A936832
:1027380043F4E0539360236813F0080F04D0414A30
:10274800936843F4604393603E4A936823F0F00330
:10275800A1680B439360236813F0010F32D06368BC
:10276800012B21D09A1E012A25D9364A126812F067
:10277800020F61D033498A6822F0030213438B6049
:1027880000F03EFA06462F4B9B6803F00C03626884
:10279800B3EB820F16D000F033FA801B41F2883376
:1027A8009842F0D9032042E0264A126812F4003F0A
:1027B800E0D101203BE0234A126812F0007FD9D112
:1027C800012034E01E4B1B6803F00703AB4207D916
:1027D800EAB21B4B1A701B6803F00703AB422DD1FA
:1027E800236813F0040F06D0164A936823F4E053C5
:1027F800E1680B439360236813F0080F07D0114A70
:10280800936823F46043216943EAC1039360FFF7A7
:102818001FFF0C4B9B68C3F303130B4AD35CD840D0
:102828000A4B18600A4B186800F09EF9002070BD2A
:10283800012070470120FAE70120F8E70120F6E7B8
:10284800003C024000380240142D00080800002017
:1028580004000020014B1868704700BF08000020E2
:1028680008B5FFF7F7FF044B9B68C3F38223034ABD
:10287800D35CD84008BD00BF00380240242D0008B2
:1028880000230F2B00F2E48070B582B060E0856809
:102898005E000324B44025EA0405CC68B4402C4308
:1028A8008460456825EA02054C68C4F300129A4022
:1028B8002A4342605AE0DC08083450F8246003F0E8
:1028C800070295000F22AA4026EA020E0A69AA40CA
:1028D80042EA0E0240F824205CE0072200E00022D1
:1028E80002FA0EF22A4302345A4D45F824205A4A75
:1028F80094686FEA0C0224EA0C054E6816F4801FEF
:1029080001D04CEA0405544CA560E46802EA0405C9
:102918004E6816F4001F01D04CEA04054E4CE560E1
:10292800646802EA04054E6816F4003F01D04CEAD8
:102938000405494C6560246822404D6815F4803FC1
:1029480001D04CEA0402444C226001330F2B7DD89D
:1029580001229A400C6804EA020C32EA0404F4D119
:102968004C6804F00304013C012C90D94A6802F039
:102978000302032A09D0C4685D000322AA4024EA9E
:1029880002048A68AA402243C2604A6802F003022D
:10299800022A90D004684FEA430E032202FA0EF28C
:1029A80024EA02044A6802F0030202FA0EF2224301
:1029B80002604A6812F4403FC7D000220192274AB9
:1029C800546C44F480445464526C02F48042019282
:1029D800019A9C08A51C1F4A52F8255003F00302CF
:1029E8004FEA820E0F2202FA0EF225EA02051C4A6D
:1029F80090423FF474AF02F5806290421AD002F51B
:102A08008062904218D002F58062904216D002F59A
:102A18008062904214D002F58062904212D002F592
:102A28008062904210D002F5806290423FF455AF28
:102A3800082255E7012253E7022251E703224FE714
:102A480004224DE705224BE7062249E702B070BD94
:102A5800704700BF00380140003C01400038024088
:102A68000000024090F83530DBB2022B03D08023FF
:102A7800436501207047052380F8353002681368E4
:102A880023F0010313600020704790F83500704769
:102A9800074AD36823F4E0631B041B0C000200F40C
:102AA800E060034343F0BF6343F40033D3607047EF
:102AB80000ED00E000B5194BDB68C3F30223C3F156
:102AC800070CBCF1040F28BF4FF0040C03F1040EEF
:102AD800BEF1060F18D9033B4FF0FF3E0EFA0CFC6F
:102AE80021EA0C0199400EFA03F322EA0303194381
:102AF80000280BDB0901C9B200F1604000F5614014
:102B080080F800135DF804FB0023E5E700F00F00F0
:102B18000901C9B2024B1954F4E700BF00ED00E007
:102B280014ED00E0002807DB00F01F024009012334
:102B38009340024A42F82030704700BF00E100E0AD
:102B48000138B0F1807F0BD24FF0E0235861054A7D
:102B5800F02182F823100020986107221A6170473B
:102B68000120704700ED00E010B504460E4B1878C0
:102B78004FF47A73B3FBF0F30C4A1068B0FBF3F030
:102B8800FFF7DEFF68B90F2C01D901200AE0002207
:102B980021464FF0FF30FFF78DFF054B1C600020EA
:102BA80000E0012010BD00BF000000200800002048
:102BB8000400002008B50B4B1A6842F400721A6032
:102BC8001A6842F480621A601A6842F480721A60C5
:102BD8000320FFF75DFF0F20FFF7C6FFFDF776FD27
:102BE800002008BD003C0240034A1168034B1B78D3
:102BF8000B441360704700BF7C00002000000020D9
:102C0800014B1868704700BF7C00002038B50446A7
:102C1800FFF7F6FF0546B4F1FF3F02D0044B1B78DF
:102C28001C44FFF7EDFF401BA042FAD338BD00BF9C
:102C380000000020034AD2F8883043F47003C2F839
:102C48008830704700ED00E0DFF834D00D480E49B9
:102C58000E4A002302E0D458C4500433C4188C42EE
:102C6800F9D30B4A0B4C002301E013600432A24253
:102C7800FBD3FFF7DFFF00F011F8FDF777FC704793
:102C880000000220000000200C0000203C2D00085D
:102C98000C00002080000020FEE7000070B50D4DFC
:102CA8000D4C641BA4100026A64209D10B4D0C4CF8
:102CB80000F020F8641BA4100026A64205D170BDC0
:102CC80055F8043B98470136EEE755F8043B98471A
:102CD8000136F2E7342D0008342D0008342D0008A1
:102CE800382D000802440346934200D1704703F888
:102CF800011BF9E7F8B500BFF8BC08BC9E46704751
:0C2D0800F8B500BFF8BC08BC9E46704740
:102D14000000000000000000010203040607080987
:082D240000000000010203049D
:082D2C00CCD4FF7F0100000080
:042D3400AD010008E5
:042D38008901000805
:0C2D3C0001000000100000000024F40062
:0400000508002C5172
:00000001FF
